:020000040800F2
:1000000098070020910E0008990E00089B0B00082D
:100010009B0B00089B0B00089B0B000800000000D6
:10002000000000000000000000000000630B00085A
:10003000A50E000800000000610B0008310B00084D
:10004000AB0E0008AB0E0008AB0E0008AB0E0008AC
:10005000AB0E0008AB0E0008AB0E0008AB0E00089C
:10006000AB0E0008AB0E0008AB0E0008AB0E00088C
:10007000AB0E0008AB0E0008AB0E0008AB0E00087C
:10008000AB0E0008AB0E0008AB0E0008AB0E00086C
:10009000AB0E0008AB0E0008AB0E0008AB0E00085C
:1000A000AB0E0008AB0E0008AB0E0008AB0E00084C
:1000B000AB0E0008AB0E0008AB0E0008AB0E00083C
:1000C000AB0E0008AB0E0008AB0E0008AB0E00082C
:1000D000AB0E0008850E0008AB0E0008AB0E000842
:1000E000AB0E0008AB0E0008AB0E0008DFF80CD01A
:1000F00006F008FC00480047C10F000898070020E0
:100100001048036840685A1C40F100000D490A601D
:10011000486070470B4908684968704710B502226B
:10012000002308490868496806F08AF910BD08B537
:1001300005A005230F4ADB210090012000F0F9F80B
:1001400008BD00000000002053797374656D2074B1
:1001500069636B28434C4B2920736572766963652C
:10016000207374617274696E67202E2E2E205B4F8F
:100170004B5D00003073000870B50446002500BFD9
:100180000DE000BF06F0EEF837498842FAD300BF11
:1001900006F0E8F841F288318842F9D86D1CA54292
:1001A000EFD370BD00B587B040F23F400A21002276
:1001B0002EA3CDE90032CDE902100523344A2821CF
:1001C000012000F0B6F833A00523314A2921009020
:1001D000012000F0AEF80220082104220392CDE9AC
:1001E000042106900121354A0523CDE90021029022
:1001F000274A2A21012000F09CF804200822CDE99A
:10020000030205900690022001212C4A4432052366
:10021000CDE9002102901E4A2C21012000F089F82E
:10022000012027A105231A4ACDE900102E2100F054
:1002300080F800F003FC00F0E9F924A000F092FA45
:1002400023A000F08FFA23A000F08CFA22A000F087
:1002500089FAFFF76CFF00F033FB00F0BDFA04F001
:1002600059FD07B000BD00007011010053746172A8
:1002700074696E672046616E732D52542025642E7A
:10028000253032642E25303464202E2E2E000000BE
:100290003C73000853686F77207468652073697A2F
:1002A00065206F6620636F726520747970652066C3
:1002B0006F722064656275673A0000004C73000835
:1002C000424F4F4C3A2025640000000048414C004A
:1002D0004D4D5300425350005453530001460829DA
:1002E00000DD0821734850F821007047724800680B
:1002F000704701218140704A126811436E4A1160B3
:100300007047012181406C4A12688A436A490A6039
:1003100070476A480078704770B505460E4600245D
:1003200000BF03E0285D06F076F8641CB442F9D300
:1003300070BD2DE9FE4F06460F4614461D464FF090
:100340000008C146C246FFF7D1FF0121A94008427B
:1003500002D10020BDE8FE8F05F0E9FF8146284666
:10036000FFF7BCFF8346CDE900043B4654A2802141
:100370005A48029406F04AFB804641465748FFF728
:10038000CBFF0DF1340A5346802154480C9A06F0F5
:1003900051FB804641465148FFF7BEFF012E09D16F
:1003A0004FA280214D4806F031FB804641464B4824
:1003B000FFF7B2FF484605F0BEFF0020CAE70FB4C2
:1003C0002DE9F04104460D4600260027B046FFF710
:1003D0008DFF0121A940084204D10020BDE8F001B1
:1003E0005DF814FB05F0A3FF06460DF12408434613
:1003F00080213A48089A06F01DFB074639463748DF
:10040000FFF78AFF012C09D135A28021334806F07D
:10041000FDFA074639463148FFF77EFF304605F0C2
:100420008AFF0020DAE72DE9F04705460E46174619
:100430004FF000080024B146FFF758FF0121A94002
:10044000084201D1BDE8F08705F071FF8046002425
:1004500022E014F00F0F0DD12CB10D2005F0DBFFC1
:100460000A2005F0D8FF23461EA229460020FFF7E8
:10047000A6FF09E014F0070F03D12D2005F0CBFFF4
:1004800002E0202005F0C7FF19F8043017A2294622
:100490000020FFF794FF641CBC42DAD30D2005F066
:1004A000BAFF0A2005F0B7FF404605F044FF00BF41
:1004B000C8E70000D47300080C00002008000020EA
:1004C0005B4C696E653A20253034645D5B25702D88
:1004D00025735D5B25735D2000000000780000201F
:1004E0000D0A0000253038583A20000025303258D7
:1004F000000000002DE9F04107460C46022C15DAF9
:10050000574800EBC40045680AE0A5F108063846E4
:10051000D6E90512904710F1030F00D005E06D6891
:100520004F4800EBC400A842EFD100BFBDE8F08106
:1005300030B502460B46516807E0A1F10800446857
:100540005D68AC4200D130BD49689142F5D10020D0
:10055000F9E770B5044614B96FF0F90070BD414970
:100560002068884204D1A06910B1207C022802DBF7
:100570006FF02D00F2E7217C394A02EBC1002146E1
:10058000FFF7D6FF10B16FF00600E7E705F0CFFEEA
:100590000546227C324B03EBC20104F108000A68D5
:1005A000416002605060086000BF284605F0C3FE4D
:1005B0000020D3E770B5044614B96FF0F90070BDA0
:1005C00028492068884202D06FF02D00F7E705F037
:1005D000AEFE054604F108004168026851600A60F9
:1005E0000060406000BF284605F0A5FE0020E6E759
:1005F00070B505460C466068FFF7ABFF70BD70B57F
:1006000005460C466068FFF7D5FF70BD7CB5002439
:1006100000BF0EE000BF124800EBC400104941F8D3
:100620003400084600EBC40001EBC401486000BF81
:10063000641C022CEED300BF0BA5174804F0B1F9DF
:1006400006460EB100BFFEE714A00523164A82211C
:10065000CDE900050120FFF76CFE00BF7CBD000066
:10066000F800002049525100496E7465727275702D
:10067000742072657175657374284953522920730B
:10068000657276696365206D616E6167657220735E
:1006900074617274696E6700007400082573202EFF
:1006A0002E2E205B4F4B5D00147400087CB5044671
:1006B000082654B94DA00123514A11210090184633
:1006C000FFF737FE6FF02B007CBD4E492068884253
:1006D00001D1206958B94CA00123494A1821CDE91C
:1006E00000041846FFF725FE6FF02D00ECE700250B
:1006F00022E04C4850F8250008B92E461BE0494836
:1007000050F8250040686168884207D0454A52F891
:100710002520A168906805F0F4FE60B942A1A068A8
:100720000123374ACDE9001027211846FFF701FEC3
:100730006FF00600C8E76D1C082DDAD3082E04D22E
:10074000384840F826400020BEE741A1A0680123B8
:100750002B4ACDE9001034211846FFF7EAFD6FF06F
:100760001600B1E77FB50546002620E02D4850F879
:10077000264004B91AE023492068884204D129465A
:10078000A06805F0BEFE00B110E03AA2A068CDE975
:10079000002005233F4A4E21CDE902400120FFF70A
:1007A000C8FD20462169884704B070BD761C082E1C
:1007B000DCD339A00123374A5421CDE9000518467E
:1007C000FFF7B7FD6FF00500EEE710B5044638A05F
:1007D000FFF7C8FF002010BD10B506230022AFF2BE
:1007E000150134A004F0FFF910BD0000496E7661D8
:1007F0006C696420706172616D657465722E0000B1
:100800001E7400084D4F4400496E76616C69642087
:100810006D6F64756C65206F626A65637420257006
:100820002E0000000801002054686973206D6F6479
:10083000756C652825732920686173206265656E73
:1008400020726567697374657265642E000000002C
:100850004E6F206D656D6F727920746F20726567C1
:100860006973746572206D6F64756C6528257329D2
:100870002E00000050726F6265206D6F64756C65AC
:10088000202573282570202D20257029202E2E2E1E
:10089000000000002D7400084E6F7420666F756EA6
:1008A00064206D6F64756C65282573292E00000027
:1008B000415050004D61696E5461736B000000003F
:1008C00008B504A00523104A1B2100900120FFF762
:1008D00030FD08BD4F626A656374206D616E6167AB
:1008E000656D656E74284F4D532920736572766966
:1008F0006365207374617274696E67202E2E2E20DA
:100900005B4F4B5D00000000397400083EB50446A3
:1009100014B96FF0F9003EBD206918B1554920683F
:10092000884202D06FF02D00F5E7606800F098F87B
:100930000546514850F8250068B1201D4FA10123FC
:100940005B4ACDE90105009123211846FFF7F1FC30
:100950006FF00600DFE7484840F825400020DAE75E
:1009600070B5044614B96FF0F90070BD206918B174
:1009700040492068884202D06FF02D00F5E760689A
:1009800000F06EF805463C4850F82500A04202D021
:100990006FF00500E9E70020374941F8250000BF66
:1009A000E3E72DE9FE4307460C4615464FF00008E5
:1009B000384600F055F881462F4850F829605DB957
:1009C0003CA00523464A5621CDE901740090012040
:1009D000FFF7AFFCBDE8FE832EB17068B84202D1CC
:1009E0003089A0420DDC6FF02F00288031A0052354
:1009F0003B4A5F21CDE9017400900120FFF799FC8B
:100A0000E8E7306950F82480B8F1000F02D16FF0A8
:100A1000320002E02946F068C047288000BFD9E7CD
:100A200070B505460C466068FFF770FF70BD70B585
:100A300005460C466068FFF793FF70BD1CB529485A
:100A4000FFF764FF08B100BFFEE727A028A1052338
:100A5000324ACDE9001085210120FFF76AFC1CBD58
:100A60000146C1F30720C01D4A1C40EAC20000F045
:100A7000070070474C50430028010020496E7374F2
:100A8000616C6C2073657276696365202725732716
:100A900020746F20256420686173206265656E2074
:100AA00072656769737465726564202100000000D7
:100AB0006074000843616C6C2073657276696365CD
:100AC000203078253038782C2066756E6374696F15
:100AD0006E202564206661696C65642E000000004C
:100AE000707400084C7400085B4F4B5D0000000000
:100AF00053797374656D2063616C6C284C50432985
:100B00002073657276696365207374617274696EAF
:100B100067202E2E2E202573000000008074000810
:100B2000004870479803002000F0EEF8FFF73AFB0A
:100B300072B600B52DE9F00FFFF7E2FA684602F051
:100B40001DFD854662B602F0BBFA72B6684602F039
:100B500035FD8546BDE8F00F5DF804EB62B67047E1
:100B6000704772B600B52DE9F00F04460D461646E3
:100B7000684602F003FD854662B6204629463246A5
:100B8000FFF70FFF72B6684602F018FD8546BDE814
:100B9000F00F5DF804EB62B6704772B600B52DE950
:100BA000F00F6C4602F0EAFC854662B6204600F083
:100BB00069F872B6684602F001FD8546BDE8F00F9F
:100BC0005DF804EB62B6704700BF000010B586B058
:100BD0000446012144F2040005F040F8274805F0DE
:100BE000A5F84FF40070ADF8140003208DF816003E
:100BF00018208DF8170005A9214804F079FD4FF45D
:100C00008060ADF8140004208DF8170005A91C4879
:100C100004F06EFD01940020ADF80800ADF80A0064
:100C2000ADF80C00ADF810000C20ADF80E0001A9D5
:100C3000124805F0BEF825208DF8000003208DF83D
:100C400001008DF8020001208DF80300684604F0D1
:100C500086FC012240F22551084805F042F90121A5
:100C6000064805F032F906B010BD10B50446012261
:100C700040F22771014805F034F910BD00380140F9
:100C8000000801400EB5044602F075FC00F10805AD
:100C900002F071FC0646334638A20021012000957F
:100CA000FFF78DFBD4E90B21A06ACDE9012100906B
:100CB00039A200210120636AFFF781FBD4E90221F8
:100CC0006068CDE90121009041A200210120236844
:100CD000FFF775FBD4E90512E069CDE90012029037
:100CE00049A2002101202369FFF769FBD4E905121D
:100CF000206ACDE90012029051A20021012023694F
:100D0000FFF75DFB00BFFEE770B505F081FA4FF419
:100D1000407004F01FFC00BF574800684FF4FA62AF
:100D2000B0FBF2F1481EB0F1807F01D3012019E041
:100D3000481E4FF0E022506150170F22002806DABB
:100D400013014E4C00F00F052D1F635502E01301F7
:100D50004B4C235400BF00204FF0E022906107204D
:100D6000106100200028D7D14FF4E130FFF72EFFAB
:100D700070BD0146002070477047000020456E742A
:100D800065722068617264206661756C74282573D1
:100D9000202D202570293A0020523020203D20307F
:100DA00078253038582020523120203D20307825B9
:100DB0003038582020523220203D203078253038DD
:100DC000582020523320203D2030782530385800DC
:100DD00020523420203D20307825303858202052B1
:100DE0003520203D203078253038582020523620BC
:100DF000203D203078253038582020523720203DA3
:100E0000203078253038580020523820203D2030BE
:100E100078253038582020523920203D2030782540
:100E20003038582020523130203D2030782530385D
:100E3000582020523131203D20307825303858005C
:100E400020523132203D2030782530385820205231
:100E50003133203D2030782530385820205231342D
:100E6000203D203078253038582020523135203D23
:100E700020307825303858006400002018ED00E05C
:100E800000E400E010B501210846FFF733FB10BD78
:100E90000648804706480047FEE7FEE7FEE7FEE714
:100EA000FEE7FEE7FEE7FEE7FEE7FEE71162000869
:100EB000ED0000081CB50446084809A10523104AA6
:100EC000CDE9001014210120FFF733FA4FF49041CF
:100ED0000C4803F029FE1CBD7047000048010020AB
:100EE000546865206D656D6F7279207374617274DA
:100EF00020616464726573732069732025702E000D
:100F0000BC7400080008002070B50546002400BF2E
:100F100017E0284850F8340020B1264800EBC40000
:100F2000406800B90CE0234951F83400294605F027
:100F3000E8FA00B104E01F4800EBC400406870BD4F
:100F4000641C052CE5D30020F9E770B505460024A4
:100F50002846FFF7D9FF04460CB1206910B96FF09D
:100F60002D0070BD2046144909688847F9E770B51F
:100F70000546002417E0114850F8340020B10F480E
:100F800000EBC400406800B90CE00C4951F8340093
:100F9000294605F0B6FA00B104E0084800EBC400A9
:100FA000406870BD641C022CE5D30020F9E70146BF
:100FB00000207047C874000810000020F07400087A
:100FC00010B512A0FFF7F3FF13A0FFF7F0FF15A075
:100FD000FFF7CDFF1749086017A0FFF7B6FF18A06D
:100FE000FFF7B3FF18A0FFF7B0FF19A0FFF7ADFFA1
:100FF00019A0FFF7AAFF1AA0FFF7A7FF1BA0FFF792
:10100000B6FF0446A047002010BD00006C69626D69
:101010006973632E736F0000636F72652E7379734B
:101020000000000052656769737465724D6F6475E6
:101030006C650000100000206D6D732E73797300D5
:101040007473732E7379730068616C2E73797300F7
:10105000646D6C2E737973006273702E73797300F4
:101060006170702E6D6F64756C65000046616E7303
:10107000456E74727900000070B50446E0B201F06C
:1010800059FE0546200A01F055FE0646082D01DAF4
:10109000284670BD082E03DA06F10800C0B2F8E752
:1010A0001020F6E770B50446E0B201F03FFE0546B9
:1010B000200A01F03BFE0646082E03DA06F108007E
:1010C000C0B270BD082D01DA2846FAE71020F8E713
:1010D00070B504462046FFF7E5FF05460120A8400D
:1010E000604001D0012000E000202844C0B270BD63
:1010F0002DE9F04105460C462846FFF7BDFF0646A0
:101100002046FFF7CFFF0746BE4201DA304600E037
:1011100038468046B8F1070F02DA4046BDE8F08154
:101120000720FBE770B50B461446018A491E0904E7
:10113000090C018230D0856C05EB84056D88C5F300
:101140000D01856C05EB83052D88C5F30D0200BFED
:10115000856C05EB82056D8861F30D05866C06EBE9
:101160008206758000BF00BF856C05EB81052D8868
:1011700062F30D05866C06EB8106358000BF00BF6B
:10118000858A61F30D05858200BF00BF458A62F341
:101190000D05458200BF04E000BFF849C0F81210F9
:1011A00000BF00BF0021826C02EB8302116000BF10
:1011B00000BF826C02EB8402116000BF70BD2DE99C
:1011C000F84F80460C461E460A9FA0890090E1E039
:1011D0003046394620EA0102824201D1421800E03D
:1011E000421E1FFA82FA00BFB24501DAF01B00E08E
:1011F000F0191FFA80F909EB0700401E1FFA80FB67
:101200000098834500DBC8E0A06C00EB8A00C07842
:10121000C0F3801000B1C0E0A06C00EB8900008832
:1012200010F4804F01D1012006E0A06C00EB890092
:101230004088C0F30D00401CB84200D0ADE03846F5
:10124000FFF746FF054600BF04F1360030F81500F1
:10125000401E0104090C04F1360020F8151061D07D
:10126000A26C02EB8B025288C2F30D00A26C02EB5F
:1012700089021288C2F30D0104F1160202EB850205
:101280005288C2F30D024A450DD100BF04F1160287
:1012900002EB8502528860F30D0204F1160303EBA2
:1012A00085035A800BE000BF04F1160232F82520B6
:1012B00061F30D0204F1160323F8252000BF00BFDF
:1012C00004F1160202EB85025288C2F30D02A36CF0
:1012D00003EB8202128861F30D029C4604F11603AF
:1012E00003EB85035B88C3F30D030CEB83031A80C8
:1012F00000BF00BF04F1160232F82520C2F30D0230
:10130000A36C03EB8202528860F30D029C4604F149
:10131000160333F82530C3F30D030CEB83035A8017
:1013200000BF1EE000BFB8F806000121A9408843B5
:10133000A8F80600B8F8061008F13E0030F81500CD
:1013400008B1012000E00020A8400143A8F80610E1
:1013500000BF00BF894904F1160000EB8500016061
:1013600000BF00BF0020A16C01EB8901086000BF35
:1013700000BFA16C01EB8B01086000BF00BF4E45B0
:1013800001DA304600E0484606464FF6FF7000EAB4
:10139000470700BF802FFFF61BAF00BF3846FFF79F
:1013A00097FE054600BFF119491E88B204F13601C7
:1013B00031F8152031F81510491C8BB204F13601B3
:1013C00021F81530002A7DD0B04215D100BF203958
:1013D00031F82510C1F30D0204F1160101EB85016E
:1013E000498802EB014121F0C02101F50041A26CC6
:1013F00002EB8602116024E000BF04F1160131F80F
:101400002510C1F30D02791E02EB014121F0C0212C
:1014100001F54041A26C02EB8602116000BF00BFE3
:10142000791E04F1160202EB8502528801EB02419B
:1014300021F0C02101F58041A26C02EB8002116015
:1014400000BF00BF04F1160101EB85014988C1F31B
:101450000D01A26C02EB8101098860F30D011346B6
:1014600004F1160202EB85025288C2F30D0203EB6F
:101470008202118000BF00BF04F1160131F825106F
:10148000C1F30D01A26C02EB8101498866F30D01E5
:10149000134604F1160232F82520C2F30D0203EBC5
:1014A0008202518000BF00BF04F1160101EB8501EB
:1014B000498866F30D0104F1160202EB85025180A2
:1014C00035E0FFE7B0420BD100BF00EB064121F051
:1014D000C02101F50041A26C02EB8602116019E007
:1014E00000BF791E00EB014121F0C02101F5404110
:1014F000A26C02EB8602116000BF00BF791E01EBF7
:10150000064121F0C02101F58041A26C02EB80026E
:10151000116000BF00BF00EB064121F0C02101F5C2
:10152000004104F1160202EB8502116000BFB8F819
:1015300006103943A8F8061000BFBDE8F88F2DE962
:10154000F04F85B083460F464FF0000AD146002584
:10155000002004900024F805C00D1FD008A001232E
:101560000D4A40F2DA41CDE900071846FEF7E1FEE8
:101570006FF0330005B0BDE8F08F0000FFBFFF3F04
:101580002570206973206E6F74207061676520611B
:101590006464726573732E006C75000800BF0020D0
:1015A0008246BAF1010F0CDBF0A00123F64A40F2AB
:1015B000E341CDE900071846FEF7BBFE6FF03400AB
:1015C000D8E70AEB4A0000EB0A110BF1080000EB28
:1015D0008104EE49206888420CD0E4A00123EA4A45
:1015E00040F2EC41CDE900071846FEF7A2FE6FF08D
:1015F0003400BFE7A068381AC0F34F25A089A8427D
:101600000EDCE3A00123E04A40F2F541CDE9025AA5
:10161000CDE900071846FEF78CFE6FF01500A9E72C
:10162000A06C00EB85000068E549084088420ED0B8
:10163000E4A00123D44A40F2FC41CDE9025ACDE9AD
:1016400000071846FEF775FE6FF0330092E7A06CB6
:1016500000EB8500008810F4804F01D1012006E0E6
:10166000A06C00EB85004088C0F30D00401C814653
:1016700005EB0900401E80B2049029462046049ADA
:10168000FFF750FD00BFE0894844E08100BF00BF84
:10169000E1E049462846FFF72BFD06460120B04011
:1016A0001FFA80F800BF05EB0801491E88B204F15B
:1016B000360131F8162031F81610491C8BB204F1AE
:1016C000360121F81630002A7FD0A84215D100BF7C
:1016D000203931F82610C1F30D0204F1160101EB97
:1016E0008601498802EB014121F0C02101F500414A
:1016F000A26C02EB8502116026E000BF04F1160126
:1017000031F82610C1F30D02A8F1010102EB0141ED
:1017100021F0C02101F54041A26C02EB850211606D
:1017200000BF00BFA8F1010104F1160202EB86021E
:10173000528801EB024121F0C02101F58041A26CE9
:1017400002EB8002116000BF00BF04F1160101EB43
:1017500086014988C1F30D01A26C02EB8101098861
:1017600060F30D01134604F1160202EB8602528863
:10177000C2F30D0203EB8202118000BF00BF04F12F
:10178000160131F82610C1F30D01A26C02EB8101A4
:10179000498865F30D01134604F1160232F826203C
:1017A000C2F30D0203EB8202518000BF00BF04F1BF
:1017B000160101EB8601498865F30D0104F116025B
:1017C00002EB8602518037E0FFE7A8420BD100BF51
:1017D00000EB054121F0C02101F50041A26C02EBB4
:1017E000850211601BE000BFA8F1010100EB01417F
:1017F00021F0C02101F54041A26C02EB850211608D
:1018000000BF00BFA8F1010101EB054121F0C0219B
:1018100001F58041A26C02EB8002116000BF00BFA5
:1018200000EB054121F0C02101F5004104F1160251
:1018300002EB8602116000BFBBF8061041EA080106
:10184000ABF8061000BF05EB080085B2A9EB080055
:101850001FFA80F900BFA9F1010010EA090F7FF417
:1018600018AF00BF2B46524621465846CDF800908F
:10187000FFF7A5FC00207DE62DE9F04F87B08146FB
:101880008B460020069000268246002700245846FA
:10189000FFF71EFC804608F00F01564830F8110093
:1018A000B9F8061008400490FFF7E6FB0546002053
:1018B00005900598012801DA082D10DB4EA1059846
:1018C0000123594ACDE9001BCDE902054FF4A5617A
:1018D0001846FEF72EFD002007B0BDE8F08F0598F2
:1018E00000EB400101EB001109F1080000EB81045D
:1018F00004F1160000EB85004088C0F30D060120BE
:10190000A840401E30441FFA80FA00BF04F13600A0
:1019100030F81500401E0104090C04F1360020F8CF
:10192000151022D0A26C02EB8A025288C2F30D007D
:10193000A26C02EB86021288C2F30D0104F11602BA
:1019400002EB85025288C2F30D02B2426FD100BF92
:1019500004F1160202EB8502528860F30D0204F1D5
:10196000160303EB85035A806DE09FE02570206924
:1019700073206E6F7420696E20616E7920726567C6
:10198000696F6E2E000000006C7500084D4D53000D
:101990004672656520706167652025702069642046
:1019A00025642066726F6D20726567696F6E2025F1
:1019B00064206F7574206F662072616E67652E00FB
:1019C0000080004046726565207061676520257063
:1019D0002069642025642066726F6D2072656769D6
:1019E0006F6E202564206973206E6F742075736597
:1019F000642E0000007500084D616C6C6F6320253B
:101A000064207061676573206661696C65642C2071
:101A1000526567696F6E2025642C20427564647975
:101A20002025642E000000007C750008FFE700BF41
:101A300004F1160232F8252061F30D0204F11603B9
:101A400023F8252000BF00BF04F1160202EB850237
:101A50005288C2F30D02A36C03EB8202128861F379
:101A60000D029C4604F1160303EB85035B88C3F368
:101A70000D030CEB83031A8000BF00BF04F11602B4
:101A800032F82520C2F30D02A36C03EB82025288C8
:101A900060F30D029C4604F1160333F82530C3F3BE
:101AA0000D030CEB83035A8000BF1EE000BFB9F8A2
:101AB00006000121A9408843A9F80600B9F80610DC
:101AC00009F13E0030F8150008B1012000E00020C7
:101AD000A8400143A9F8061000BF00BFFA4904F16D
:101AE000160000EB8500016000BF00BF0020A16C64
:101AF00001EB8601086000BF00BFA16C01EB8A0109
:101B0000086000BF00BF06EB0B0087B2781E1FFA0B
:101B100080FA0120A840A0EB0B0080B2069000BF25
:101B2000E089A0EB0B00E08100BF00BF218A481CC8
:101B3000208200295FD0B24511D100BF608AC0F376
:101B40000D01A08A01EB004020F0C02000F1804090
:101B500000F50040A16C01EB8601086021E000BFA8
:101B6000608AC0F30D01ABF1010001EB004020F0F1
:101B7000C02000F1804000F54040A16C01EB8601DF
:101B8000086000BF00BFABF10100A18A00EB01407B
:101B900020F0C02000F14020A16C01EB8A01086018
:101BA00000BF00BFA08AC0F30D00A16C01EB800054
:101BB00000886AF30D000A46A18AC1F30D0102EB09
:101BC0008101088000BF00BF618AC1F30D01A06CD4
:101BD00000EB8100408866F30D00628AC2F30D02BB
:101BE000A16C01EB8201488000BF00BFA08A66F3B0
:101BF0000D00A08239E0B2450DD100BF0AEB0640CE
:101C000020F0C02000F1804000F50040A16C01EB05
:101C1000860108601DE000BFABF101000AEB004047
:101C200020F0C02000F1804000F54040A16C01EBA5
:101C30008601086000BF00BFABF1010000EB064069
:101C400020F0C02000F14020A16C01EB8A01086067
:101C500000BF00BFA08A66F30D00A08200BF00BFD6
:101C6000608A6AF30D00608200BF00BF00BFE3E03E
:101C700038460699FFF73CFA8046012000FA08F042
:101C800080B2049000BF04993944491E88B204F11F
:101C9000360131F8182031F81810491C8BB204F1C4
:101CA000360121F81830002A7FD0B84215D100BF84
:101CB000203931F82810C1F30D0204F1160101EBAF
:101CC0008801498802EB014121F0C02101F5004162
:101CD000A26C02EB8702116026E000BF04F116013E
:101CE00031F82810C1F30D020499491E02EB01419D
:101CF00021F0C02101F54041A26C02EB8702116086
:101D000000BF00BF0499491E04F1160202EB8802CD
:101D1000528801EB024121F0C02101F58041A26C03
:101D200002EB8002116000BF00BF04F1160101EB5D
:101D300088014988C1F30D01A26C02EB8101098879
:101D400060F30D01134604F1160202EB880252887B
:101D5000C2F30D0203EB8202118000BF00BF04F149
:101D6000160131F82810C1F30D01A26C02EB8101BC
:101D7000498867F30D01134604F1160232F8282052
:101D8000C2F30D0203EB8202518000BF00BF04F1D9
:101D9000160101EB8801498867F30D0104F1160271
:101DA00002EB8802518037E0FFE7B8420BD100BF59
:101DB00000EB074121F0C02101F50041A26C02EBCC
:101DC000870211601BE000BF0499491E00EB01412E
:101DD00021F0C02101F54041A26C02EB87021160A5
:101DE00000BF00BF0499491E01EB074121F0C0214B
:101DF00001F58041A26C02EB8002116000BF00BFC0
:101E000000EB074121F0C02101F5004104F1160269
:101E100002EB8802116000BFB9F80610049A114362
:101E2000A9F8061000BF0498384487B204990698B0
:101E3000401A80B2069000BF069800287FF418AFC1
:101E400000BF059800EB400101EB001109F108000B
:101E500000EB8100806800EB46203DE510B50246AE
:101E60000023012909DA01EB410000EB011402F122
:101E7000080000EB8400C08910BD00210BE001EBDD
:101E8000410000EB011402F1080000EB8400C0895E
:101E90000344481CC1B20129F1DB1846ECE72DE9E7
:101EA000F35F81460026019800EB400101EB001131
:101EB00009F1080000EB8104A78940F2FF1010EA45
:101EC000870F03D0012002E0FFBFFF3F0020B900D1
:101ED00000EB512A4FF0000B99F8050028B9BAF130
:101EE000240F07D1DFF83CB604E051464846FFF71F
:101EF000C3FC8346BBF1000F14D1A06883464FF4A6
:101F0000007101FB0A0000BFA06000BF00BFA189F3
:101F1000A1EB0A01A18100BF00BFA189E18100BF3F
:101F2000A78900BFB900584604F0D4FA00BFC4F82E
:101F300048B000BF00BFD9F800003844C9F800001D
:101F400000BF00BFE0E039463046FFF7D1F8054654
:101F50000120A8401FFA80F800BF06EB0801491EC7
:101F600088B204F1360131F8152031F81510491CFA
:101F70008BB204F1360121F81530002A7FD0B0422F
:101F800015D100BF203931F82510C1F30D0204F13D
:101F9000160101EB8501498802EB014121F0C021C6
:101FA00001F50041A26C02EB8602116026E000BF41
:101FB00004F1160131F82510C1F30D02A8F1010159
:101FC00002EB014121F0C02101F54041A26C02EB7E
:101FD0008602116000BF00BFA8F1010104F11602E2
:101FE00002EB8502528801EB024121F0C02101F58C
:101FF0008041A26C02EB8002116000BF00BF04F1BF
:10200000160101EB85014988C1F30D01A26C02EBB9
:102010008101098860F30D01134604F1160202EBF9
:1020200085025288C2F30D0203EB8202118000BFC9
:1020300000BF04F1160131F82510C1F30D01A26CA7
:1020400002EB8101498866F30D01134604F1160283
:1020500032F82520C2F30D0203EB8202518000BF4B
:1020600000BF04F1160101EB8501498866F30D01FB
:1020700004F1160202EB8502518037E0FFE7B0421F
:102080000BD100BF00EB064121F0C02101F500415A
:10209000A26C02EB860211601BE000BFA8F10101F7
:1020A00000EB014121F0C02101F54041A26C02EB9F
:1020B0008602116000BF00BFA8F1010101EB0641DB
:1020C00021F0C02101F58041A26C02EB8002116079
:1020D00000BF00BF00EB064121F0C02101F5004127
:1020E00004F1160202EB8502116000BFB9F8061078
:1020F00041EA0801A9F8061000BF06EB080086B205
:10210000A7EB080087B200BF002F7FF41CAF00BF11
:10211000BDE8FC9F2DE9F04F89B0054689464FF098
:102120000008C246C346002008900024FE4EE80581
:10213000C00D04D0C5F30800C0F5007001E0C5F380
:102140000800079005EB0900C0F30800069000BFE7
:1021500000208046B8F1010F0FDBAFF2F0700123D1
:10216000F24A40F29751CDE900051846FEF7E1F832
:102170006FF0340009B0BDE8F08F08EB480000EBC9
:10218000081106F1080000EB8104E9492068884243
:1021900002D07079012813DB01212068CDE902808B
:1021A000CDE904147079E3490123E04ACDE9001038
:1021B0004FF4B4611846FEF7BCF86FF01500D9E78C
:1021C0000798284408900798A9EB00010698A1EB0E
:1021D000000B4FEA5B2ABAF5804F0CD9D6A0012339
:1021E000D24A40F2AE51CDE9000B1846FEF7A1F8F5
:1021F0006FF01500BEE700BFA4F80CA000BF00BF41
:10220000A4F80EA000BF00BF0898A06000BF00BFE8
:10221000C748206000BF00BFD448C4F8120000BF08
:10222000002709E000BFD14904F1160000EB870048
:10223000016000BF781CC7B2082FF3DB414630466F
:10224000FFF72DFE7079401C7071002092E730B5C9
:1022500002460B46002100200DE001EB410404EB97
:10226000011502F1080404EB8504363434F81340F8
:1022700020444C1CE1B20129EFDB30BDFEB506461F
:102280000C4600255CB9BAA00123C44A4FF4BB61D7
:1022900000901846FEF74DF86FF02B00FEBD206849
:1022A00034280FD03421BEA220680123CDE90020BC
:1022B0000291BA4A40F2DE511846FEF73AF86FF042
:1022C0002D00EBE74FF40070606001213046FFF70E
:1022D000C5FDA0603068E060F0882082002509E03C
:1022E00029463046FFF7B3FF04F1140141F82500F9
:1022F000681CC5B2082DF3DB0020CFE72DE9F04FB5
:1023000093B004460D4690464FF000090026002089
:1023100012900027A06C00EB8500008810F4804F1D
:1023200001D1284606E0A06C00EB85004088C0F390
:102330000D00284486B2A06C00EB8500008810F4E4
:10234000804F01D1012006E0A06C00EB85004088A1
:10235000C0F30D00401C1290A06C00EB860040887A
:10236000C0F30D0773484C300523954A40F20361D2
:1023700000900120FDF7DDFF4FF0000981E0A16C26
:1023800001EB8601C978C1F3801000F0D7FC8246CA
:10239000A16C01EB86014978C80900F0CFFC8346A7
:1023A000A16C01EB86014978C1F3801000F0C6FCF6
:1023B0001190A16C01EB8501C978C1F3801000F088
:1023C000BDFC1090A16C01EB85014978C80900F0B3
:1023D000B5FC0F90A16C01EB85014978C1F3801029
:1023E00000F0ACFC0E90A06C00EB86000068129927
:1023F000CDE90A1709960C901198A16C01EB8501A3
:102400000968CDE907BACDE90510DDE90F210E987D
:10241000CDE90315CDE901024648A8300523684AF5
:102420004FF4C16100900120FDF783FF3D46A06C91
:1024300000EB8500008810F4804F01D1284606E0AB
:10244000A06C00EB85004088C0F30D00284486B2E4
:10245000A06C00EB8500008810F4804F01D10120B2
:1024600006E0A06C00EB85004088C0F30D00401C26
:102470001290A06C00EB86004088C0F30D0709F1B4
:102480000109C145FFF47BAF002013B0BDE8F08F18
:102490002DE9F04385B081460C4616460027B84624
:1024A0000025012C0EDB47A001234C4A40F2266197
:1024B000CDE900041846FDF73CFF6FF0340005B08D
:1024C000BDE8F08304EB440000EB041109F10800BF
:1024D00000EB81051649286888420CD040A00123F2
:1024E0003E4A40F22E61CDE900041846FDF721FF77
:1024F0006FF03400E3E7082E12DA05F1360030F809
:102500001670203800EB86004088C0F30D083C4868
:102510000523324A40F236618DE85101049771E09B
:1025200074E0000078020020240200208D7500086D
:102530004D4D5300F4750008546865207265676955
:102540006F6E20686176652025642062797465204D
:10255000746F206C617267652C20492063616E275F
:1025600074207573652069742E000000FFBFFF3F63
:10257000496E76616C696420706172616D65746525
:102580007220746F2063616C6C2074686973206FB3
:102590007065726174696F6E2E0000009A75000894
:1025A00053656C662073697A65202575206F757494
:1025B000206F662072616E67652025752E00000011
:1025C000B4750008496E76616C696420726567694C
:1025D0006F6E2069642025752E000000C675000806
:1025E000496E76616C696420726567696F6E206FF1
:1025F000626A6563742C2069642025752E000000D2
:10260000FC7600080120FDF794FE0EE02F8AA88AD0
:10261000C0F30D08D3A00523E24A40F23C618DE8E7
:10262000110103970120FDF784FE67B9DEA00123A5
:10263000DC4A40F24161CDE900041846FDF779FE1D
:102640006FF033003BE73A4641462846FFF756FE17
:1026500035E7FEB5074600250026D9A00523E24A46
:1026600040F24C6100900120FDF763FEDFA1386865
:102670000523DD4ACDE9001040F24D610120FDF750
:1026800058FE7879E0A10523D74ACDE9001040F241
:102690004E610120FDF74DFEF888E2A10523D24AE4
:1026A000CDE9001040F24F610120FDF742FEE5A0A8
:1026B0000523CD4A40F2516100900020FDF739FE1C
:1026C00029E106EB460000EB061107F1080000EBDC
:1026D0008104E349206888427ED1E2A00523C24AF2
:1026E00040F25C61CDE900060120FDF722FE207971
:1026F000E6A10523BC4ACDE9001040F25D6101204E
:10270000FDF717FEE8A1A0680523B74ACDE9001040
:1027100040F25E610120FDF70CFEA089EAA10523CD
:10272000B14ACDE9001040F25F610120FDF701FEE2
:10273000E089ECA10523AC4ACDE900104FF4CC614F
:102740000120FDF7F6FD208AEDA10523A64ACDE97B
:10275000001040F261610120FDF7EBFDEFA00523C1
:10276000A14A40F26261CDE900060120FDF7E1FDDA
:10277000608AC0F30D00F3A105239B4ACDE9001048
:1027800040F263610120FDF7D4FDE07CC0F38010CE
:10279000F4A10523944ACDE9001040F264610120C0
:1027A000FDF7C7FDE07CC009F5A105238E4ACDE900
:1027B000001040F265610120FDF7BBFDA08AC0F367
:1027C0000D00F6A10523884ACDE9001040F26661AC
:1027D0000120FDF7AEFD00E09BE0607DC0F38010BE
:1027E000F6A10523804ACDE9001040F2676101207F
:1027F000FDF79FFD607DC009F7A105237A4ACDE969
:1028000000104FF4CD610120FDF793FD00257DE020
:10281000F8A00523744A40F26B61CDE90165009090
:102820000120FDF786FD04F1160030F82500C0F305
:102830000D00C4A105236C4ACDE9001040F26C6183
:102840000120FDF776FD04F1160000EB85004078CD
:10285000C0F38010C3A10523634ACDE9001040F204
:102860006D610120FDF765FD04F1160000EB8500A8
:102870004078C009C2A105235B4ACDE9001040F2AF
:102880006E610120FDF755FD04F1160000EB850097
:102890004088C0F30D00E2A10523534ACDE90010A2
:1028A00040F26F610120FDF744FD04F1160000EBDA
:1028B0008500C078C0F38010C0A105234A4ACDE945
:1028C00000104FF4CE610120FDF733FD04F1160036
:1028D00000EB8500C078C009BFA10523424ACDE9BD
:1028E000001040F271610120FDF723FD04F1360074
:1028F00030F81500D2A105233B4ACDE9001040F283
:1029000072610120FDF715FD681CC5B2082DFFF6A8
:102910007FAF701CC6B2012EFFF6D3AEFEBD70B500
:1029200006460D462C4615B96FF0F90070BD20899A
:1029300081B23046FEF7A0FF6060606808B10020F9
:10294000F4E76FF01600F1E770B506460C46254631
:1029500014B96FF0F90070BD30466968FEF7EFFDFD
:10296000F9E7000055534544202A2A2A2053686F6E
:102970007720726567696F6E2025642073746172B9
:1029800074207061676520256420746F74616C2009
:10299000256420757365642073656374696F6E7355
:1029A0003A000000C67500085468697320726567B4
:1029B000696F6E20256420697320667265652E003C
:1029C0002A2A2A2A2A2053686F77206D616E616750
:1029D000657220696E666F726D6174696F6E202A10
:1029E0002A2A2A2A00000000DE7500084D616E6167
:1029F0006765725061676573202020202020203A8F
:102A000020202020256C75005265676973746572FB
:102A1000526567696F6E73202020203A20202020A5
:102A2000257500004D616E61676572427564647959
:102A30004D6170202020203A202020203078253041
:102A400034780000427564647920696E666F726D37
:102A50006174696F6E20203A202020200000000061
:102A60004D4D53002A2A2A2A2A2053686F77205274
:102A70006567696F6E20257520696E666F726D617E
:102A800074696F6E202A2A2A2A2A00005265676913
:102A90006F6E4F6E43686970202020202020203AFE
:102AA0002020202025640000526567696F6E5374F2
:102AB00061727420202020202020203A2020202015
:102AC0003078257000000000526567696F6E5061B4
:102AD00067657320202020202020203A20202020FD
:102AE00025750000526567696F6E467265657320D3
:102AF000202020202020203A2020202025750000A2
:102B0000526567696F6E55736564436F756E7420A7
:102B10002020203A20202020257500002A2A2A2A59
:102B20002A2053686F7720526567696F6E2025757C
:102B300020557365645461626C65202A2A2A2A2A0A
:102B4000000000005072766553656374696F6E20F3
:102B5000202020202020203A202020203078254CC2
:102B6000580000004D616E79426F6F6C65616E2098
:102B7000202020202020203A20202020256C7500B5
:102B800048656164426F6F6C65616E202020202073
:102B90002020203A20202020256C75004E65787476
:102BA00053656374696F6E20202020202020203A16
:102BB000202020203078254C580000005573656493
:102BC000426F6F6C65616E20202020202020203A0B
:102BD00020202020256C750052657365727665642F
:102BE00042697420202020202020203A202020200C
:102BF000256C75002A2A2A2A2A2053686F772052CA
:102C00006567696F6E20257520627564647920742C
:102C100061626C65202575202A2A2A2A2A00000074
:102C20004E65787453656374696F6E202020202090
:102C30002020203A202020203078256C58000000E9
:102C4000526567696F6E4275646479436F756E741F
:102C50002020203A202020202575000070B506464F
:102C60000C46254614B96FF0F90070BD297930463D
:102C7000FFF7F4F868600020F7E770B506460C46E9
:102C8000254614B96FF0F90070BDD5E90101FFF7D1
:102C900041FAF9E770B505460C4628466168FFF72A
:102CA000EDFA70BD70B504460D462046FFF7D1FC25
:102CB000002070BD70B506460C4625462A79A888C6
:102CC000C0F307213046FFF7E3FB70BD70B5044643
:102CD000E005C00D01D0012000E0002000EB5420F1
:102CE00085B229461B48FEF7C7FD70BD10B50446E6
:102CF00021461848FEF723FC10BD7CB5064600BFF0
:102D000015A41F4801F04DFE05460DB100BFFEE7BA
:102D10001CA005231E4A40F2E761CDE90004012012
:102D2000FDF707FB00BF00207CBD70470146194836
:102D3000405C704701461848405C70470CB501463E
:102D4000164A05CACDE9000201F001005DF8200035
:102D50000CBD0000240200204D656D6F7279206D5E
:102D6000616E6167656D656E74284D4D53292073E2
:102D7000657276696365207374617274696E670049
:102D8000407500082573202E2E2E205B4F4B5D00D2
:102D9000EA7500088D7900088D7A0008AC75000886
:102DA000026848600A6051600160704741680268CB
:102DB00051600A6000604060704710B50246002113
:102DC000106D00F1140300BF08E053F82100FD4C22
:102DD000A04202D06FF0170010BD491C0229F4D3A5
:102DE0000020F9E770B50146C21700EB926293111B
:102DF00001229A40F44B1B781A43F34B1A70C41704
:102E000000EB9464A411F14D2C5D0246C51700EB54
:102E10005575EB10DD1703EB5575ED10A3EBC506EB
:102E20000125B5402C43C51700EB9565AD11E74E64
:102E30007455C31700EB5373DB10E54CE35CC41708
:102E400000EB5474E410A0EBC4050124AC40234310
:102E5000C41700EB5474E410DD4D2B5570BDF0B574
:102E60000C46C31700EB5373DB10D94DEB5C0246E5
:102E7000C51700EB5575ED10A0EBC50504FA05F577
:102E8000AB430146C51700EB5575ED10D04E735599
:102E90000546C61700EB5676F610CD4FBE5D0EB94F
:102EA000012600E000260146C71700EB5777FB100C
:102EB000DF1703EB5777FF10A3EBC707BE40C71719
:102EC00000EB9767BF11DFF804C31CF8077027EA0F
:102ED00006060246C71700EB9767BF110CF807609C
:102EE000C31700EB93639B116546EB5C0BB90123A1
:102EF00000E000230146C51700EB9565AD11AB401E
:102F0000B14D2D789D43B04B1D70F0BD70B504469A
:102F10000D4604F12400FFF749FF94F84810AD4A2C
:102F200002EBC10004F12401FFF73AFF00BF94F85F
:102F3000470020F0E000403084F8470000BF00BFA9
:102F4000A4F8405000BF94F84800FFF74BFF70BD55
:102F500010B5044604F12400FFF728FF94F8481048
:102F60009C4A02EBC10004F12401FFF719FF00BFE6
:102F700094F8470020F0E000403084F8470000BF9C
:102F800000BFB4F84200A4F8400000BF94F8480025
:102F9000FFF728FF10BD70B504460D4604F124006C
:102FA000FFF704FF04F124018B48FFF7F9FE00BF8F
:102FB00094F8470020F0E000203084F8470000BF7C
:102FC00000BFE56300BF94F84820824B03EBC202C8
:102FD000526894F848307F4E06EBC3039A4201D101
:102FE000012200E00022114694F84800FFF737FF65
:102FF00070BD2DE9F04100270025002603F097F968
:103000000746754845686E6810E0A5F12404E06B3A
:10301000B0F1FF3F08D0E06B401EE06304D1B4F88C
:1030200042102046FFF772FF35466E686A488542B7
:10303000EBD1384603F07FF9BDE8F0817FB500257C
:103040006648046803F073F9054694F847004009A0
:1030500015D0012814D003281CD1B4F84000A0F5E5
:103060007F41FF390AD0B4F84000401E0004000C34
:10307000A4F8400002D12046FFF76AFF1BE01AE0E7
:1030800000BF0020A4F8400000BF2046E16BFFF71E
:1030900082FF10E094F84700400904F1080150A2B3
:1030A0000123CDE90024CDE90210574AF521184645
:1030B000FDF73FF900BF00BF284603F03CF97FBD94
:1030C00010B55248007878B1FFF7B8FFFFF791FFCD
:1030D00042480068806B401C4049096888634C483E
:1030E0000068401C4A49086010BD10B5494800F00E
:1030F000C2FA143810BD70B5FFF7F7FF0446FDF7AC
:103100000FFD0546224605F58061E06D03F030F9BC
:10311000064600BF256500BF00BF666500BF00BF53
:103120004FF48060E06400BF00BF012037490870A1
:1031300000BF002070BD10B50246002191690FE06C
:10314000A1F114043348884201D1002010BD94F845
:10315000470043091BB1042B01D02046F6E749681C
:1031600002F114008142EBD10020EFE72DE9F0419C
:1031700000250024FFF7B9FF064603F0D8F80746FC
:1031800023480068B0F5FA6F5BD32248446849E0F1
:10319000A4F1140090F847305A09EAB3042A40D049
:1031A0004FF0640C836B03FB0CF3DFF864C0DCF8B6
:1031B00000C0B3FBFCF16B18DDB200BF80F8441017
:1031C00000BF2AE053544B003C0000203D0000208B
:1031D00048030020080300202C00002014000020D9
:1031E0005461736B202570206E616D6520272573F7
:1031F00027207374617465202564206E6F742076B7
:10320000616C69642E0000003F77000820000020F8
:103210001C0000203400002003E000BF0023836373
:1032200000BF6468F7488442B2D100BFC5F16400B2
:1032300096F84410084486F8440000BF0020F24984
:103240000860384603F077F80020BDE8F0812DE9EA
:10325000F04104466FF00707EC48056803F067F893
:1032600006467DB195F8450000F0010094F8451040
:1032700001F00101884205DD304603F05CF8F810EA
:10328000BDE8F08194F84500C0F3C00000283FD0AD
:1032900094F84500C0F3001038B100BF94F8450021
:1032A00020F0100084F8450004E004F11401D54832
:1032B000FFF776FD94F847004009012802D0022864
:1032C0000ED106E0B4F842102046FFF764FE002756
:1032D0000CE0B4F842102046FFF718FE002705E086
:1032E000304603F028F86FF00300C9E700BF94F8F8
:1032F000480007280CD100BF94F8470020F0E000F8
:10330000603084F8470000BF00BFC048046000BFC1
:10331000304603F010F83846B2E770B5044603F0C3
:1033200006F8054694F84700400901280AD002280B
:1033300002D003280BD100E000BF04F12400FFF706
:1033400035FD0AE004F12400FFF730FD05E02846D2
:1033500002F0F1FF6FF0030070BD00BF04F11C002C
:10336000FFF724FD04F12401A948FFF719FDA9483E
:103370000088401CA749088000BF94F8450020F051
:103380001000103084F8450000BF00BF94F84500DD
:1033900020F0080084F8450000BF00BF94F8470003
:1033A00020F0E000803084F8470000BF94F8482007
:1033B000994B03EBC202526894F84830964E06EBE4
:1033C000C3039A4201D1012200E00022114694F881
:1033D0004800FFF744FD284602F0ADFF0020BBE7A0
:1033E00070B504468948056802F0A1FF06462146EB
:1033F0002846FFF7D0FD304602F09DFF002070BD4B
:1034000070B504466FF0030502F091FF064694F88C
:1034100047000121B1EB501F05D1B4F842102046FE
:10342000FFF774FD0025304602F085FF284670BD89
:103430002DE9F04104460D4674480668002702F065
:1034400076FF804694F847004009052818D2DFE847
:1034500000F019030809180000BF86F8485000BFA3
:1034600013E000BF04F12400FFF7A0FC00BF86F8C2
:10347000485000BFB4F842102046FFF747FD04E073
:1034800000BF00BF6FF0030700BF00BF404602F05F
:1034900052FF3846BDE8F0812DE9F04104460D4663
:1034A00002F045FF064600BF84F8485000BF294699
:1034B0002046FFF7BDFF0746304602F03CFF384686
:1034C000BDE8F0812DE9F04104460F4602F02FFFE0
:1034D000064694F849102046FFF7AAFF05463046F5
:1034E00002F029FF2846BDE8F0812DE9F0410025D2
:1034F00002F01DFF06464648446867680BE0A4F1E9
:10350000240505F12400FFF751FC42480088401EC5
:103510004049088002E03E488442F0D100BF304676
:1035200002F009FF2846BDE8F0812DE9F04104468C
:103530006FF02C063548056802F0F9FE074625B104
:1035400000BFA5F84A4000BF0026384602F0F3FE4F
:103550003046BDE8F08170B56FF003052B48046874
:1035600002F0E5FE06460CB1B4F94A50304602F0CE
:10357000E2FE284670BD25480068704770B50446D5
:1035800022480568254801780078401C234A1070BD
:1035900009B1204670BD22480078072807D0284688
:1035A000FFF70BFC18B12846FFF7B7FE02E000BF9B
:1035B0006C6500BF204600BF00BFEBE710B50446B6
:1035C00016480078401E10F0FF001449087001D022
:1035D000204610BD00F057F80C480068406DF8E731
:1035E00010B502F0A4FE044600BF00200B4908708D
:1035F00000BF204602F09FFE002010BD10B5002441
:1036000000BF1EE0340000201C0000201400002039
:10361000240000201A0000200803002021000020C0
:103620001800002000BF344800EBC400324941F8C4
:103630003400084600EBC40001EBC401486000BF41
:10364000641C082CEED300BF2C480146086048607B
:1036500000BF00BF2A4801460860486000BF00BFA5
:10366000284801460860486000BF2021264802F033
:1036700031FF002010BD01464868884201D100207A
:1036800070474868FCE72DE9F04100BF1F4800780B
:1036900000F02DF804461E49085D00F028F80646A3
:1036A00006EBC401184A505C00F021F88046A001E6
:1036B00000EBC6004044C0B207460F4901EBC7000B
:1036C000FFF7D9FFA0F1240500BF1248077000BF23
:1036D00000BF1148056000BF00BF95F8470020F00B
:1036E000E000603085F8470000BFBDE8F08101468A
:1036F0000A48405C704700000803002024000020B6
:103700002C00002034000020480300203C00002052
:103710003D00002018000020140000208D7A0008D1
:1037200070B504460D46FFF7E6FC70BD2DE9F0418B
:1037300080460C46264602F0FAFD07467068FFF701
:103740004FFE0546384602F0F6FD2846BDE8F081FA
:103750002DE9F04180460C466FF003062746FA48F3
:10376000796800F045FD05461DB96FF02D00BDE8F4
:10377000F08100210846D5E90C3259405040014300
:1037800003D12846FFF73CFE06463046EFE770B50A
:1037900006460C462546A98808B2FFF7C6FE70BD4E
:1037A00070B504460D46FFF7D6FE70BD2DE9FC410D
:1037B00080460F463D46FFF798FE0446C4B16E684A
:1037C00000BF3068A0607168E160B168216100BF2E
:1037D00000BF94F8450020F00800083084F8450048
:1037E00000BF204600F05AFDAC600020BDE8FC811F
:1037F000D64AD548696800F031FC04462CB300BFB6
:1038000094F8460020F01F001F3084F8460000BFE7
:1038100000BF94F8470020F01F001F3084F84700D5
:1038200000BF00BF94F8450020F00800083084F87D
:10383000450000BF00BF94F8450020F0100084F858
:10384000450000BFAC600020D0E7C1A16868052337
:10385000C74ACDE9001092210120FCF76AFD6FF004
:103860001600C3E72DE9F04107460D462E46B6483F
:10387000716800F0BDFC04461CB96FF02D00BDE876
:10388000F081206D10B16FF00300F8E700BF94F8ED
:10389000470020F0E00084F8470000BF2146AA4816
:1038A00000F069FCEBE72DE9F04107460C4626469F
:1038B000A548716800F09CFC05461DB96FF02D000D
:1038C000BDE8F0812846FFF7C2FCF9E72DE9F04199
:1038D00080460D462F46FFF74EFE04469A4879680B
:1038E00000F086FC06461EB96FF02D00BDE8F081A1
:1038F00014B96FF01900F9E794F8450000F00100E1
:1039000096F8451001F00101884202DD4FF0FF30CA
:10391000ECE700BF94F8450020F00400001D84F897
:10392000450000BF0020E1E770B505460E46FFF7F1
:1039300022FE044614B96FF0190070BD94F84500DA
:10394000C0F3800010B16FF00700F6E70020F4E745
:103950002DE9F04107460C4626467B48716800F089
:1039600047FC05461DB96FF02D00BDE8F0812846E3
:10397000FFF7D3FCF9E72DE9F04180460E463746C4
:103980007868B0F1FF3F03D1FFF7F5FD044604E08E
:103990006D48796800F02CFC04461CB96FF02D00CE
:1039A000BDE8F081BD6800BFA0682860E06868607D
:1039B0002069A86000BF0020F2E72DE9F04107462A
:1039C0000C46FFF7D8FD0546264635B1686820F459
:1039D000604070600020BDE8F0816FF01900FAE7E8
:1039E0002DE9F04781460E46B0465748D8F80410F6
:1039F00000F0FEFB04461CB96FF02D00BDE8F08717
:103A0000D8F808700FB94FF480675A4A5A495B4892
:103A100000F024FB0546EDB100BF6868C0F3044028
:103A200094F8461060F3040184F8461000BF00BF0C
:103A30006868C0F3445094F8471060F3040184F8B8
:103A4000471000BF00BF256500BF00BFE76400BF8F
:103A50000020D3E76FF01600D0E72DE9F04781464C
:103A60000E463746FFF787FD80463748796800F0F5
:103A7000BFFB05461DB96FF02D00BDE8F08795F836
:103A800047000421B1EB501F01D04842F5E72C6DEF
:103A900000BF95F84600616860F31441616000BFA3
:103AA00000BF95F84700616860F35951616000BF3D
:103AB00000BF3048206000BF00BF0020286500BF65
:103AC00021462E4800F057FBD7E72DE9F041074685
:103AD0000C4625461C48696800F08AFB06461EB95C
:103AE0006FF02D00BDE8F08196F84800A860002036
:103AF000F8E72DE9F04107460C4626461248716862
:103B000000F076FB05463DB9FFF735FD05461DB9CA
:103B10006FF00300BDE8F081317A2846FFF7BCFC66
:103B2000F8E72DE9F04180460C4625462E79FFF74F
:103B300022FD0746042E23DC07F1640050F826001E
:103B4000A8600020BDE8F0816803002054535300B2
:103B50004D616C6C6F63207461736B282573292031
:103B6000636F6E74657874206661696C65642E009D
:103B7000E877000853544B00547700088003002076
:103B80006FF01500BDE8F0812DE9F04180460C464C
:103B900025462E79FFF7EFFC0746042E09DC00BF0F
:103BA00007F16400A96840F8261000BF0020BDE8B6
:103BB000F0816FF01500FAE72DE9F04107460C4659
:103BC00025469548696800F013FB06461EB96FF05C
:103BD0002D00BDE8F08196F847004009A86000205C
:103BE000F7E72DE9F04107460E46002435466868A0
:103BF000B0F1FF3F03D1FFF778FA044614E086489E
:103C0000696800F0F5FA044654B94FF0FF30A86037
:103C10006FF01900FFF789FC6FF01900BDE8F08123
:103C20002046FFF788FA044614B94FF0FF3002E04F
:103C3000606820F46040A8600020EFE72DE9F047BD
:103C400081460E4600243746BD6805F10D081DB9B2
:103C50006FF0F900BDE8F0877868B0F1FF3F02D15E
:103C6000FFF789FC03E06C48796800F0C1FA04466C
:103C700014B96FF02D00EDE704F14404A06828604A
:103C8000A068686020782872E0784FEA5010687267
:103C900034F8020C688120792873D4E90310A4F168
:103CA0004404A0EB0100686000BFA068C8F80000F1
:103CB000E068C8F804002069C8F8080000BF4FF0A9
:103CC0000000C7E770B504460D46FFF74FFA70BD18
:103CD0007CB5064600F0EBFF044650A00523584A89
:103CE00040F2312100900120FCF723FB00BF01F0DE
:103CF00051F902F028FB00F0BEFF0500F7D051A0FB
:103D000001234F4A40F23A21CDE900041846FCF75E
:103D100010FB28467CBD70B58AB00646574808217E
:103D200057A20523CDE9002102905F4A40F24221CB
:103D30000120FCF7FEFA5DA005235B4A40F2432117
:103D400000900120FCF7F5FA142080210122019255
:103D5000CDE9022104905F480523534A4FF41171C5
:103D600000900120FCF7E5FA022001215AA2052368
:103D7000CDE9002102904C4A40F246210120FCF797
:103D8000D8FA8020082101230022CDE900105BA190
:103D9000214800F01EF94FF4806008210123002221
:103DA000CDE9001059A15D4800F013F9FFF726FC9A
:103DB00000BF5BA4634800F0F4FD05460DB100BFF1
:103DC000FEE761A00523384A4FF41671CDE90004DF
:103DD0000120FCF7AEFA00BF142105A802F07AFB1F
:103DE00001208DF824005B48059007208DF8250000
:103DF0004FF6FF70ADF82600002205A956A001F08D
:103E000098FAB0F1FF3F01D100BFFEE7FFF7E8FBF2
:103E10000AB070BD704700006803002053797374C6
:103E2000656D2069646C65207461736B20776F72B7
:103E30006B696E67206E6F77202E2E2E2E0000008D
:103E4000F77700082A2A2A2A2A2A2A2A2A2A2049EF
:103E5000646C65207461736B2025702071756974C2
:103E60007320756E65787065637465646C792A2A51
:103E70002A2A2A2A2A2A2A2A2A00000060770008E9
:103E80004D6178207072696F72697479206973204E
:103E900025642C20666E48616E646C657273203DEB
:103EA0002025702E000000000078000853686F770E
:103EB000207468652073697A65206F662074737357
:103EC000207479706520666F722064656275673A48
:103ED000000000000C7800085441534B5F535441DC
:103EE0005455533A202564202054494D455F534C86
:103EF0004943455F543A2025640000007461736BA8
:103F0000206D616E6167657200000000737461630B
:103F10006B206D616E616765720000008003002098
:103F20005461736B205363686564756C65285453E2
:103F300053292073657276696365207374617274A6
:103F4000696E6700BC7700082573202E2E2E205B3B
:103F50004F4B5D00D13C000849646C6500000000D7
:103F6000D4480068D3490968491CD24A1160704797
:103F7000FEB50446002500262068B0F1FF3F09D0B9
:103F8000CDA00123D24A1D2100901846FCF7D1F99B
:103F9000E81FFEBD2079A16800FB01F52846FEF769
:103FA00095FE064600BFE66000BFE06858B9C9A0AC
:103FB0000123C74A29218DE861001846FCF7B9F9A9
:103FC0006FF01600E5E700BFD148206000BF002079
:103FD000DFE72DE9F05F0546884616469946DDE99C
:103FE0000AAB1821284602F075FA00BFC5F8008018
:103FF00000BF00BF85F8049000BF00242AE005F14F
:10400000080101EB041000BF4FF0FF31016000BF59
:1040100000BF16B104FB0B6100E00021C16000BFCE
:1040200000BF80F804A000BF00BF80F805A000BF5B
:1040300000BFC0F808B000BF002707E08279012167
:10404000B940C9B20A438271791CCFB2082FF5DB9F
:10405000601CC4B2012CD2DBBDE8F09F2DE9FE4FFD
:1040600080468B46914600240027002598F80400DE
:10407000A8420EDC98F80400A6A10123AE4ACDE9BF
:10408000001502905F211846FCF753F90020BDE8A7
:10409000FE8F08F1080000EB05142068B0F1FF3F27
:1040A0000ED12046FFF764FF50B1A4A00123A24A1D
:1040B0006921CDE900041846FCF73BF90020E6E74A
:1040C0009349206888420AD0A2A001239A4A70210D
:1040D000CDE900041846FCF72CF90020D7E7A079B9
:1040E000A2490E5C00BF2079B0420ADCA0A00123E7
:1040F000914A7821CDE900051846FCF71AF900200D
:10410000C5E7D4E9021006FB0107A0790121B140FF
:104110004840A071FFF724FF824600BF5846C9F30C
:104120000723DB1D09F1010C43EACC0303F007016F
:104130008B0606F01F0C43EA4C5343EA0543CAF3CF
:104140000C0C43EA0C0343F4005200BFC7F8009084
:1041500000BF00BF7A6000BF00BF0368BB60D0F83B
:1041600004C0C7F80CC0D0F808C0C7F810C000BF22
:1041700000BF38468BE72DE9FE4380460D46686850
:10418000C0F304476868C0F3445608F1080000EB28
:1041900007145F49206888420CD06EA00123824A30
:1041A0009F21CDE900041846FCF7C3F86FF0190011
:1041B000BDE8FE83D4E9021006FB0100A8420CD042
:1041C0007AA00123784AA521CDE90176009018460E
:1041D000FCF7AFF86FF00500EAE7A0790121B140E4
:1041E0000843A07100BF0020286000BF00BFDFE7C8
:1041F0002DE9FE4306460D46C5F30448C5F3445970
:10420000307940450DDC307972A101237F4ACDE938
:1042100000180290BC211846FCF78BF80020BDE87E
:10422000FE8306F1080000EB081439492068884233
:104230000AD048A00123754AC421CDE900041846DC
:10424000FCF777F80020EAE7207948450CDC207974
:104250006FA101236D4ACDE900190290CA211846C9
:10426000FCF767F80020DAE7D4E9021009FB010740
:10427000786820F46040A8420ED0786820F460404E
:1042800070A10123614ACDE900150290D2211846A0
:10429000FCF74FF80020C2E73846C0E710B50446E7
:1042A00000BFFFF75DFE616860F30C01616000BF55
:1042B00010BD0000440000204372656174652070E9
:1042C0006F6F6C206661696C6564202100000000DE
:1042D000517800084D616C6C6F6320256420627911
:1042E00074657320746F2063726561746520545324
:1042F0005320706F6F6C206661696C65642C207050
:104300006F696E746572206973202570202100002A
:10431000504F4C0054686520706F6F6C20696428A2
:10432000256429206F7574206F662072616E676541
:10433000282564292E0000005C780008496E76610B
:104340006C696420545353206D6167696320257044
:104350002E000000496E76616C696420706F6F6C8E
:10436000206D616769632025702E00008D7A00083A
:1043700043616E206E6F7420666F756E6420667286
:10438000656520656E747269657320696E20706F53
:104390006F6C20256420746F2063726561746520E2
:1043A0007461736B2E0000006C78000846726565BE
:1043B000206F626A6563742050696420256420451B
:1043C0006964202564206E6F742076616C69642EA8
:1043D000000000005468652068616E646C652070A0
:1043E000696428256429206D6178207468616E20D5
:1043F0006D616E6167657220746F74616C282564ED
:104400002920706F6F6C732E000000007A7800080E
:104410005468652068616E646C6520656964282550
:104420006429206D6178207468616E20706F6F6CF4
:1044300020746F74616C28256429206974656D731C
:104440002E000000496E76616C69642068616E64BC
:104450006C652076616C7565203078253038782C55
:10446000206865616465722068616E646C652030E7
:1044700078253038782E000010B58CB04FF0FF341E
:10448000DFA00523E84ADA2100900120FBF751FF65
:104490001BE01C2105A802F01DF805A9204600F02C
:1044A0002AFC9DF820109DF81C200DF12103069890
:1044B000CDE90132CDE90310DCA00523DA4AE12180
:1044C00000900120FBF735FF00BF204600F01BFCE9
:1044D0000446B0F1FF3FDCD100200CB010BDF0B5B8
:1044E00097B00746002400BFDAA112A802F017F81F
:1044F00012A90AA802F013F86F2094FBF0F100FB58
:10450000114010B9012000F094FB12A9684602F096
:1045100006F8DE2094FBF0F100FB114010B90120F9
:1045200000F087FB00F0C3FB0646142212A93046B8
:1045300000F0A5FB40F24D1094FBF0F100FB1140A0
:1045400010B9012000F075FB4FF4DE7094FBF0F120
:1045500000FB114010B90A2000F06BFB641C00F056
:104560008AFB0500C0D0284617B0F0BD00B585B065
:104570001421684601F0AEFF01208DF81000B94803
:10458000009000208DF811000A20ADF81200694655
:10459000B5A000F01FFBB0F1FF3F01D100BFFEE767
:1045A000002005B000BDF0B597B00746002400BF5D
:1045B000A8A112A801F0B3FF12A90AA801F0AFFF49
:1045C000212094FBF0F100FB114010B9012000F014
:1045D00030FB12A9684601F0A2FF372094FBF0F1EE
:1045E00000FB114010B9012000F023FB00F05FFB3D
:1045F0000646142212A9304600F041FB4D2094FBE0
:10460000F0F100FB114010B9012000F012FB642012
:1046100094FBF0F100FB114010B90A2000F009FBF7
:10462000641C00F028FB0500C2D0284617B0F0BD7E
:1046300010B500228F4990A000F0E2FA00228D49C7
:1046400090A000F0DDFA00228A4991A000F0D8FA8B
:104650000022884991A000F0D3FA002010BD014645
:1046600091480068401C904A10600020704730B5A7
:1046700087B0002400BF28E00620B4FBF0F100FB67
:10468000114010B9012000F0D4FA234687A20C2172
:1046900004A802F0BBF90022864904A800F0B0FA91
:1046A000054600BF681C0ED104A883A101238D4AD2
:1046B000CDE9010500913F211846FBF73AFE6FF066
:1046C000190007B030BD00BF641CB4F57A7FD3D3A6
:1046D0004FF47A7000F0ADFA00BF73480068A04252
:1046E0000ED07148006880A101237E4ACDE9010403
:1046F000009146211846FBF71CFE6FF01900E0E719
:1047000000BF0020DDE71CB500BFFFF7B0FF60B1C0
:1047100084A087A101238A4ACDE90010EB21184625
:10472000FBF707FE6FF019001CBD7EA085A10523D5
:10473000834ACDE90010EB210120FBF7FAFD00BF11
:1047400000BFFFF775FF60B183A079A101237C4A08
:10475000CDE90010EC211846FBF7EBFD6FF01900D6
:10476000E2E77DA077A10523754ACDE90010EC2191
:104770000120FBF7DEFD00BF00BFFFF7F7FE60B1D1
:1047800078A06BA101236E4ACDE90010ED211846F7
:10479000FBF7CFFD6FF01900C6E772A069A10523F2
:1047A000674ACDE90010ED210120FBF7C2FD00BFF3
:1047B0001FE000BFFFF760FE60B16DA05CA10123A8
:1047C0005F4ACDE90010F0211846FBF7B2FD6FF00B
:1047D0001900A9E766A05BA10523594ACDE900109D
:1047E000F0210120FBF7A5FD00BF4FF47A7000F027
:1047F00020FADEE710B50446FFF785FF10BD7047CD
:10480000207461736B206E616D6520207C204350A5
:1048100055207C20205072696F72697479207C2049
:1048200020537461636B0000B37B0008252D313287
:1048300073202020253032642020202020202025B5
:1048400064202020202020202534752042797465A2
:10485000732E0000546573744D6573736167653121
:1048600000000000DF440008546573745461736BEA
:1048700030350000A7450008546573745461736BAC
:1048800030310000546573745461736B3032000032
:10489000546573745461736B3033000054657374E2
:1048A0005461736B303400004800002054534B2592
:1048B000303858005F4600084372656174652074A3
:1048C00061736B20272573272068616E646C6520F7
:1048D000697320307825303878206661696C6564AA
:1048E00020210000A87B0008546573742074617354
:1048F0006B207265636F76657279206661696C659D
:1049000064202C2044756D6D79436F756E74282575
:104910006429206E6F742065787065637420256447
:104920002E000000546173744361736530310000E0
:104930002573202E2E2E205B4641494C45445D00B8
:10494000BE7B00082573202E2E2E205B535543433B
:104950004553535D000000005461737443617365F7
:10496000303200005461737443617365303300006A
:104970005465737443617365313700007FB5064633
:104980000D46144604B96C466FF002002080E570B5
:1049900022462946304601F0BBFCB4F9000004B0C1
:1049A00070BD1FB5044601946A4600211148FFF707
:1049B000E5FF04B010BD1FB5044601946A4601210D
:1049C0000C48FFF7DBFF04B010BD1FB5044601948F
:1049D0006A4600210848FFF7D1FF04B010BD1FB59B
:1049E000044601946A4601210348FFF7C7FF04B05B
:1049F00010BD00004C504300495251001FB5044601
:104A0000E005C00D01D0012000E0002000EB5420A3
:104A100080B202906A4600215148FFF7AFFF10B103
:104A2000002004B010BD0198FBE71FB504460194B7
:104A30006A4601214A48FFF7A1FF04B010BD30B516
:104A400087B00446049403AA03214548FFF796FF64
:104A5000050011D0032043A10123504ACDE90105EF
:104A6000009130211846FBF764FC284600F0EDF871
:104A70004FF0FF3007B030BD0498FBE730B587B08A
:104A800005465DB946A001234E4A432100901846D1
:104A9000FBF74FFC6FF0F90007B030BD049503AA97
:104AA00004212F48FFF76AFF044654B104202DA1CA
:104AB0000123444ACDE9010400914D211846FBF73A
:104AC00038FC2046E8E73EB5002205212448FFF7E0
:104AD00055FF044654B1052022A101233A4ACDE9ED
:104AE0000104009161211846FBF723FC20463EBDDE
:104AF00070B588B005460E4606EB0520059004AA61
:104B000006211748FFF73AFF044654B1062015A1C5
:104B100001232E4ACDE90104009177211846FBF7C5
:104B200008FC204608B070BD70B588B005460E463A
:104B30000595069604AA02210948FFF71FFF0446BF
:104B400054B1022007A10123214ACDE901040091BB
:104B50008B211846FBF7EDFB204608B070BD000026
:104B60004D4D530043616C6C2073797374656D20F7
:104B700073657276696365204D4D532066756E636B
:104B800074696F6E202564206661696C65642C20F1
:104B900072657475726E202564000000C77B000882
:104BA000496E76616C696420696E666F726D6174BE
:104BB000696F6E2062756666657220706F696E74CB
:104BC00065722E00DA7B0008EC7B0008FF7B000892
:104BD000147C000870B504460D4601222946204683
:104BE00000F0A7FB70BDF8B505460E4617461C46FB
:104BF00001233A4631462846009400F016FCF8BDE1
:104C0000F8B504460D4616460620012332462946CD
:104C10000090204600F009FCF8BD10B5044620467F
:104C200000F0CEF810BD10B54FF0FF30FFF7F5FFE4
:104C300010BD10B50446204600F073F810BD10B545
:104C40000446204600F078F810BD10B50446204612
:104C500000F028F910BD10B500F01DF910BD10B519
:104C60000446B4F1FF3F02D16FF0F90010BD2046B9
:104C700000F0BCF8FAE710B500F0B1F810BDFEB5D1
:104C800006460C46154604B115B96FF0F900FEBD95
:104C90006946304600F0B9F8070001D03846F6E71B
:104CA0002A466946204601F020FC3846EFE710B559
:104CB00000F0BCF810BD70B504460D4629462046EC
:104CC00000F00CF970BD10B50446204600F0F4F871
:104CD00010BD10B5032000F00DF910BD10B504464D
:104CE0002146032000F016F910BD10B504462046F9
:104CF00000F01CF910BD70B504460D46294620464B
:104D000000F029F970BD10B50446204600F02FF9D7
:104D100010BD000010B500221146F748FFF72EFE27
:104D200010BD1FB50446600001906A460121F2489B
:104D3000FFF724FE04B010BD1FB5044601946A4677
:104D40000221ED48FFF71AFE04B010BD30B587B060
:104D50000546049503AA0321E748FFF70FFE044622
:104D600074B1E6A00123EF4A6021CDE900041846A2
:104D7000FBF7DFFA2046FFF768FF002007B030BDE1
:104D80000598FBE71FB504460020009001900290B3
:104D9000039001946A460421D748FFF7EFFD04B061
:104DA00010BD1FB5044600200090019002900390B2
:104DB00001946A460521D048FFF7E0FD04B010BD1C
:104DC0001FB50446002000900190029003900194CA
:104DD0006A460621C848FFF7D1FD04B010BD10B5E2
:104DE00000220821C448FFF7C9FD10BD1FB50446C5
:104DF0000020009001900290039001946A460721E0
:104E0000BD48FFF7BBFD04B010BD7FB504460D469D
:104E100000200090019002900390019402956A4650
:104E20000921B548FFF7AAFD04B070BD10B586B0E2
:104E30004FF0FF30039002AA0A21AF48FFF79EFD12
:104E4000044684B1B8A00123C24A4FF48371CDE96E
:104E500000041846FBF76DFA2046FFF7F6FE4FF008
:104E6000FF3006B010BD0398FBE77FB504460D4642
:104E7000019402956A460B219F48FFF77FFD04B01D
:104E800070BD1FB5044601946A460C219A48FFF78D
:104E900075FD04B010BD10B500220D219648FFF736
:104EA0006DFD10BD1FB5044601946A460E2192485F
:104EB000FFF764FD04B010BD1FB5044601944FF028
:104EC000FF3002906A460F218B48FFF757FD18B15B
:104ED0004FF0FF3004B010BD0298FBE77FB50446E9
:104EE0000D46019402956A4610218348FFF746FD5E
:104EF00004B070BD1FB504460194002002906A46BC
:104F000011217D48FFF73AFD10B1002004B010BD1B
:104F10000298FBE77FB504460D46019402956A4668
:104F200012217548FFF72AFD04B070BD7FB5044615
:104F30000194002002906A4613216F48FFF71EFD7E
:104F4000050005D02846FFF7ADFF052004B070BD71
:104F50000298C0B2FAE77FB504460D460194029567
:104F60006A4614216448FFF709FD04B070BD7FB59F
:104F7000044601946A4615215F48FFF7FFFC0500CF
:104F800006D02846FFF78EFF4FF0FF3004B070BD0B
:104F90000298FBE710B5002216215748FFF7EEFCF8
:104FA00010BD38B505460C466B4800686A4909686B
:104FB000491C694A1160234668A20B2100902846CB
:104FC00001F024FD284638BDF8B504462546EF6DAE
:104FD000686820F4604600BFFBF79CF8C5E90C0147
:104FE00000BFA86DB8473046FFF7EAFE5DA0012379
:104FF000624A40F2622100901846FBF79AF9F8BD28
:105000002DE9FF5F07460D4690460026B346384619
:10501000FFF79CFE044664B959A001235F4A40F2A1
:105020007D2100901846FBF784F9701E04B0BDE89E
:10503000F09F606820F4604A687C072855D0FFF72D
:1050400036FEB0F1FF3F0ED155A00123534A40F286
:10505000872100901846FBF76CF95046FFF792FE47
:105060004FF0FF30E2E794F84500C0F30010A0B91C
:105070005046E968FFF7F9FE78B151A00523474A89
:1050800040F29121CDE900070120FBF752F950468B
:10509000FFF778FE4FF0FF30C8E7266D7EB948A0D5
:1050A00005233E4A40F29A21CDE900070120FBF793
:1050B00040F95046FFF766FE4FF0FF30B6E706F1C5
:1050C0001401002000BF03E0464A41F82020401CA4
:1050D0000228F9D300BFD4F84C9006EB0901224610
:1050E000414801F045F9834693E0FFF7E0FDB0F158
:1050F000FF3F00D07AE088E0545353004D616C6C60
:105100006F63207461736B20636F6E7465787420B5
:105110006661696C65642C20726573756C742025FA
:10512000642E0000237C000847657420637572724A
:10513000656E74207461736B20636F6E7465787430
:10514000206661696C65642C20726573756C7420CF
:1051500025642E00337C00084C0000202573253088
:10516000345800002A2A2A2A2A2A2A2A20776879EB
:10517000202A2A2A2A2A2A2A2A2A0000477C0008CA
:10518000437265617465207461736B206F626A6538
:105190006374206661696C65642E0000517C0008B0
:1051A0004D757374206372656174652069646C6504
:1051B000207461736B2066697273742E00000000A6
:1051C000416C6C6F63207461736B20257320737462
:1051D00061636B20627566666572206661696C65E5
:1051E000642E000053544B00C94F0008A7A00523AC
:1051F000AE4A40F2AA2100900120FBF79AF85046EF
:10520000FFF7C0FD4FF0FF3010E7002601F089F8EE
:10521000834600BF00212163616300BF00BF0020FF
:10522000A06300BF00BF4FF6FF70E06300BF00BF88
:10523000688A4FF6FF7101EA4000A4F8400000BF01
:1052400000BF688A01EA4000A4F8420000BF00BF26
:10525000002084F8440000BF00BF94F8450020F00F
:10526000020084F8450000BF00BF94F8450020F01C
:10527000040084F8450000BF00BF94F8450068F3BF
:10528000000084F8450000BF00BF287C08B1022060
:1052900000E0012094F8471060F3471184F84710AC
:1052A00000BF00BF687C84F8480000BF00BF687C76
:1052B00084F8480000BF00BF0020A4F84A0000BFE7
:1052C00000BFC4F854B000BF00BFA868A06500BF0D
:1052D00000BF2868E06500BF00BF04F124006062E1
:1052E000A06200BF00BF0838E061206200BF6168B3
:1052F00021F46040FFF755FDB8B104F108006CA13E
:1053000001236A4ACDE90246CDE9001040F2D721D7
:105310001846FBF70EF816B15046FFF7B2FD50469F
:10532000FFF730FD4FF0FF3080E6606820F460400A
:105330007CE670B58AB004460D4616460020029001
:105340000390049085B966A001236E4A40F2FD21C6
:1053500000901846FAF7EDFF6FF0F900FFF775FCC3
:105360004FF0FF300AB070BD1422294605A801F0A5
:1053700098F8059878B964A00123624A40F2063192
:1053800000901846FAF7D5FF6FF03000FFF75DFC8C
:105390004FF0FF30E6E79DF82500082812DB9DF866
:1053A000250061A10123574ACDE9001040F20E31DA
:1053B0001846FAF7BEFF6FF05A00FFF746FC4FF0B1
:1053C000FF30CFE79DF8250007280CD0BDF8260058
:1053D000A0F57F41FF3906D16FF02B00FFF735FCB8
:1053E0004FF0FF30BEE72CB958A102A8FFF7D9FD56
:1053F000044604E00B22214602A801F076F8069844
:1054000008B953A000E006980690BDF826000A28C7
:1054100001DA0A2001E0BDF82600ADF82600324688
:1054200005A902A8FFF7ECFD9CE72DE9F04186B045
:1054300007460C4615461E46DDF83080142101A8AB
:1054400001F048F801208DF81400019403958DF8BF
:1054500015800A20ADF816004FF4806004903246A3
:1054600001A93846FFF765FF06B0BDE8F081F8B541
:1054700004460D4616461F4606203B463246294640
:1054800000902046FFF7D1FFF8BD000049646C652D
:10549000207461736B2063616E206E6F742062658F
:1054A00020637265617465202E000000517C000845
:1054B000437265617465207461736B2027257327BF
:1054C000206661696C65642C20636F6E7465787406
:1054D00020257020737461636B2025702E000000FE
:1054E000496E76616C6964206372656174652074CD
:1054F00061736B20706172616D20706F696E74658D
:1055000072202100627C0008496E76616C6964201B
:105510007461736B20656E7472792066756E637446
:10552000696F6E2021000000496E76616C6964200D
:105530007461736B207072696F726974792076611F
:105540006C756520256420210000000054534B0039
:105550002F00000031490143314A1160704770B596
:10556000002100230F22C4780CB32D4C246804F4CE
:10557000E064C4F5E064210AC1F10403CA40447840
:1055800004FA03F18478144021430901254C06787C
:10559000A155047804F01F050124AC4005786D1175
:1055A0004FF0E02606EB8505C5F8004109E00478D8
:1055B00004F01F050124AC401B4D0678761145F818
:1055C000264070BD194A0A400243154B1B1F1A6042
:1055D000704739B1124A121D12680243104B1B1D4D
:1055E0001A6006E00E4A121D126882430C4B1B1D06
:1055F0001A607047042808D14FF0E021096941F092
:1056000004014FF0E022116107E04FF0E021096949
:1056100021F004014FF0E022116170470000FA050B
:105620000CED00E000E400E080E100E080FFFF1FFF
:1056300010B50446CA48844208D10121042000F074
:1056400027FB0021042000F023FB46E0C5488442EC
:1056500008D10121082000F01BFB0021082000F0E8
:1056600017FB3AE0C048844208D10121102000F025
:105670000FFB0021102000F00BFB2EE0BB48844202
:1056800008D10121202000F003FB0021202000F0A0
:10569000FFFA22E0B648844208D10121402000F000
:1056A000F7FA0021402000F0F3FA16E0B1488442F6
:1056B00008D10121802000F0EBFA0021802000F0C9
:1056C000E7FA0AE0AC48844207D10121801500F0D6
:1056D000DFFA0021A01500F0DBFA10BD10B50121A2
:1056E000084600F0D5FA0021012000F0D1FA10BDE3
:1056F0002DE9F04102460025002600200023002469
:10570000002791F803C00CF00F0591F803C01CF0BE
:10571000100F03D091F802C04CEA050591F800C0C3
:10572000BCF1000F31D0146800202BE04FF0010CC9
:105730000CFA00F3B1F800C00CEA03069E4220D137
:1057400083004FF00F0C0CFA03F7BC4305FA03FC7F
:105750004CEA040491F803C0BCF1280F06D14FF0C5
:10576000010C0CFA00FCC2F814C00AE091F803C066
:10577000BCF1480F05D14FF0010C0CFA00FCC2F847
:1057800010C0401C0828D1D31460B1F800C0BCF18F
:10579000FF0F34DD546800202EE000F1080C4FF0BC
:1057A000010808FA0CF3B1F800C00CEA03069E42A7
:1057B00021D183004FF00F0C0CFA03F7BC4305FA1C
:1057C00003FC4CEA040491F803C0BCF1280F05D196
:1057D00000F1080C08FA0CF8C2F8148091F803C024
:1057E000BCF1480F07D100F1080C4FF0010808FA8E
:1057F0000CF8C2F81080401C0828CED35460BDE8D5
:10580000F0814FF6FF710180022181700421C17087
:1058100070470246002093680B4201D0012000E04F
:10582000002070470146886880B270470246002019
:10583000D3680B4201D0012000E0002070470146F0
:10584000C86880B2704701617047416170470AB112
:10585000016100E041617047C16070474FF48032E0
:105860000A4382618161826182698269704702466E
:105870000020424B18684FF68073184040EA02102F
:1058800008433E4B186070473D49C8617047F0B50A
:105890000A46002300240021002500F00046B6F14E
:1058A000004F02D1354EF16901E0344E7168C0F30A
:1058B000034583B200F44016B6F5401F08D121F02D
:1058C00070612E4E766826F070662C4F7E6012E076
:1058D00000F48016B6F5801F06D1032606FA05F4FB
:1058E000A14341F0706106E0460D360103FA06F669
:1058F000B14341F0706122B1460D360103FA06F65C
:10590000314300F00046B6F1004F02D11B4EF16169
:1059100001E01A4E7160F0BD30B500228B071C0FFC
:105920000F2303FA04F2154B08338C1053F824307C
:105930009343124C08348D1044F8253023468C10C4
:1059400053F824308C07240F00FA04F423430B4C43
:1059500008348D1044F8253030BD0A49086070477E
:1059600000080140000C01400010014000140140FB
:1059700000180140001C01400020014000000140CF
:1059800000002042DC002042DD48006840F00100B9
:10599000DB49086008464068DA490840D849486051
:1059A00008460068D8490840D5490860084600689C
:1059B00020F4802008600846406820F4FE0048601B
:1059C0004FF41F0088607047CD49096821F4803189
:1059D000CB4A11601146096821F480211160B0F5AD
:1059E000803F03D0B0F5802F0ED106E0C44909688E
:1059F00041F48031C24A116007E0C149096841F4AD
:105A0000A021BF4A116000E000BF00BF704710B581
:105A100001460022002300204A11012A02D1B84C7D
:105A2000236806E0022A02D1B54C236A01E0B44C97
:105A3000636A01F01F02012494401C4201D001203E
:105A400000E0002010BD38B50020009000240025A3
:105A500000BF3120FFF7DBFF05460098401C009097
:105A60000098B0F5A06F01D0002DF2D03120FFF7E3
:105A7000CEFF08B1012400E00024204638BD0146D5
:105A800000209F4A106820F0F80040EAC100106032
:105A900070479E490860704702460020984B58683E
:105AA00020F47C1042EA01031843954B586070477C
:105AB00096490866704701460020914A506820F0D8
:105AC00003000843506070478D48406800F00C00A8
:105AD0007047014600208A4A506820F0F0000843D1
